{
  "_format": "hh-sol-artifact-1",
  "contractName": "Score",
  "sourceName": "contracts/Score.sol",
  "abi": [
    {
      "inputs": [],
      "stateMutability": "nonpayable",
      "type": "constructor"
    },
    {
      "anonymous": false,
      "inputs": [
        {
          "indexed": true,
          "internalType": "address",
          "name": "previousOwner",
          "type": "address"
        },
        {
          "indexed": true,
          "internalType": "address",
          "name": "newOwner",
          "type": "address"
        }
      ],
      "name": "OwnershipTransferStarted",
      "type": "event"
    },
    {
      "anonymous": false,
      "inputs": [
        {
          "indexed": true,
          "internalType": "address",
          "name": "previousOwner",
          "type": "address"
        },
        {
          "indexed": true,
          "internalType": "address",
          "name": "newOwner",
          "type": "address"
        }
      ],
      "name": "OwnershipTransferred",
      "type": "event"
    },
    {
      "inputs": [],
      "name": "acceptOwnership",
      "outputs": [],
      "stateMutability": "nonpayable",
      "type": "function"
    },
    {
      "inputs": [
        {
          "internalType": "address",
          "name": "user",
          "type": "address"
        }
      ],
      "name": "getScore",
      "outputs": [
        {
          "internalType": "uint16",
          "name": "",
          "type": "uint16"
        }
      ],
      "stateMutability": "view",
      "type": "function"
    },
    {
      "inputs": [],
      "name": "owner",
      "outputs": [
        {
          "internalType": "address",
          "name": "",
          "type": "address"
        }
      ],
      "stateMutability": "view",
      "type": "function"
    },
    {
      "inputs": [],
      "name": "pendingOwner",
      "outputs": [
        {
          "internalType": "address",
          "name": "",
          "type": "address"
        }
      ],
      "stateMutability": "view",
      "type": "function"
    },
    {
      "inputs": [],
      "name": "renounceOwnership",
      "outputs": [],
      "stateMutability": "nonpayable",
      "type": "function"
    },
    {
      "inputs": [
        {
          "internalType": "address",
          "name": "activity_",
          "type": "address"
        }
      ],
      "name": "setActivity",
      "outputs": [],
      "stateMutability": "nonpayable",
      "type": "function"
    },
    {
      "inputs": [
        {
          "internalType": "address",
          "name": "newOwner",
          "type": "address"
        }
      ],
      "name": "transferOwnership",
      "outputs": [],
      "stateMutability": "nonpayable",
      "type": "function"
    }
  ],
  "bytecode": "0x6080806040523461006257600180546001600160a01b03199081169091555f805433928116831782556001600160a01b0316907f8be0079c531659141344cd1fd0a4f28419497f9722a3daafe3b4186f6b6457e09080a361178d90816100678239f35b5f80fdfe604060808152600480361015610013575f80fd5b5f91823560e01c908163715018a61461142057816379ba5097146112ed5781638da5cb5b1461129c578163d47875d0146101f5578163e30c3978146101a257508063e3f43fdb1461011f5763f2fde38b1461006c575f80fd5b3461011b5760207ffffffffffffffffffffffffffffffffffffffffffffffffffffffffffffffffc36011261011b573573ffffffffffffffffffffffffffffffffffffffff808216809203610117576100c36114c5565b817fffffffffffffffffffffffff000000000000000000000000000000000000000060015416176001558254167f38d16b8cac22d99fc7c124b9cd0de2d3fa1faef420bfe791d8c362d765e227008380a380f35b8280fd5b5080fd5b503461011b5760207ffffffffffffffffffffffffffffffffffffffffffffffffffffffffffffffffc36011261011b573573ffffffffffffffffffffffffffffffffffffffff811680910361011b576101766114c5565b7fffffffffffffffffffffffff0000000000000000000000000000000000000000600254161760025580f35b83903461011b57817ffffffffffffffffffffffffffffffffffffffffffffffffffffffffffffffffc36011261011b5760209073ffffffffffffffffffffffffffffffffffffffff600154169051908152f35b9050823461129957602092837ffffffffffffffffffffffffffffffffffffffffffffffffffffffffffffffffc36011261011b5780359173ffffffffffffffffffffffffffffffffffffffff9182841680940361011b5760029183835416908651937f66d13fb600000000000000000000000000000000000000000000000000000000855286848601526101609260249380878681855afa96871561076f5784976111a1575b505082908951987f9445ae040000000000000000000000000000000000000000000000000000000092838b5281888c01528c8b8881865afa9a8b1561119757869b61115c575b508461ffff809c16115f14611015576102f990611673565b8b5184815282898201528d818981875afa9081156107bc5786918d918991610fdc575b50161115610dfb5761032d90611686565b8b5184815282898201528d818981875afa9081156107bc5786918d918991610dc2575b50161115610c785761036190611660565b8b5184815282898201528d818981875afa9081156107bc5786918d918991610c3f575b50161115610a5f5761039590611660565b8b5184815282898201528d818981875afa9081156107bc5786918d918991610a26575b501611156107ff576103c990611673565b925b8b5181815282898201528d818981875afa9081156107bc5786918d9189916107c6575b501611156105955750505090610405608092611686565b905b60e087015189168061056657505061041e9061163d565b6101008601518061052557506104339061163d565b955b42169401805180155f1461045b575050505050506104529061164d565b915b5191168152f35b6213c68081018091116104fa5785101561048357505050505061047d9061163d565b91610454565b80516220f58081018091116104fa578510156104a757505050505061047d90611617565b5192623b538084018094116104d15750505011156104c85761047d9061170b565b61047d90611660565b6011907f4e487b7100000000000000000000000000000000000000000000000000000000835252fd5b50506011837f4e487b7100000000000000000000000000000000000000000000000000000000835252fd5b6801158e460913d000008111610545575061053f90611673565b95610435565b6802b5e3af16b18800001061055d5761053f90611744565b61053f90611731565b6001810361057e57505061057990611673565b61041e565b0361058c5761057990611744565b61057990611731565b8b5181815282898201528d818981875afa9081156107bc5791868f94938a938f918b91610779575b5016036105db575050505050906105d5608092611673565b90610407565b8d51948593849283528b8301525afa90811561076f579089918591610729575b50608093929116600103610612576105d590611660565b60c0870151680821ab0d441498000081111561063257506105d59061163d565b68068155a43676e0000081111561064d57506105d59061162a565b68056bc75e2d6310000081111561066857506105d590611617565b6804563918244f40000081111561068357506105d590611604565b680340aad21b3b70000081111561069e57506105d5906115c4565b680270801d946c9400008111156106b957506105d590611660565b68015af1d78b58c400008111156106d457506105d5906116d2565b67d02ab486cedc00008111156106ee57506105d5906116bf565b678ac7230489e8000081111561070857506105d5906116ac565b674563918244f400001015610720576105d590611699565b6105d590611686565b8092508c8092503d8311610768575b6107428183611543565b81010312610764579060018961075a608095946115b1565b91509192936105fb565b8380fd5b503d610738565b8a513d86823e3d90fd5b9450505050919281813d83116107b5575b6107948183611543565b810103126107b1578d9291868d6107ab8b946115b1565b5f6105bd565b8680fd5b503d61078a565b8d513d89823e3d90fd5b925050508d81813d83116107f8575b6107df8183611543565b810103126107b1578b6107f287926115b1565b5f6103ee565b503d6107d5565b8b5184815282898201528d818981875afa9081156107bc5786918d9189916109ed575b5016036108385761083290611660565b926103cb565b8b5184815282898201528d818981875afa80156107bc578c9088906109b6575b1660011415905061086c576108329061164d565b8a60a08a01516907695a92c20d6fe0000081115f146108905750506108329061163d565b69054b40b1f852bda000008111156108ad5750506108329061171e565b6903635c9adc5dea0000008111156108ca5750506108329061162a565b69028a857425466f8000008111156108e7575050610832906116e5565b6901e7e4171bf4d3a000008111156109045750506108329061164d565b69014542ba12a337c000008111156109215750506108329061170b565b68bdbc41e0348b30000081111561093d575050610832906116f8565b686c6b935b8bbd40000081111561098b575016600b018a811161096057926103cb565b868660118a7f4e487b7100000000000000000000000000000000000000000000000000000000835252fd5b681b1ae4d6e2ef50000010156109ac5716600d018a811161096057926103cb565b5061083290611673565b50508d81813d83116109e6575b6109cd8183611543565b810103126107b1578b6109e16001926115b1565b610858565b503d6109c3565b925050508d81813d8311610a1f575b610a068183611543565b810103126107b1578b610a1987926115b1565b5f610822565b503d6109fc565b925050508d81813d8311610a58575b610a3f8183611543565b810103126107b1578b610a5287926115b1565b5f6103b8565b503d610a35565b8b5184815282898201528d818981875afa9081156107bc5786918d918991610c06575b501603610a9757610a92906115c4565b610395565b8b5184815282898201528d818981875afa80156107bc578c908890610bcf575b16600114159050610acb57610a9290611604565b888c01516907695a92c20d6fe00000811115610aeb5750610a929061163d565b69054b40b1f852bda00000811115610b075750610a929061171e565b6903635c9adc5dea000000811115610b235750610a929061162a565b69028a857425466f800000811115610b3f5750610a92906116e5565b6901e7e4171bf4d3a00000811115610b5b5750610a9290611617565b69014542ba12a337c00000811115610b775750610a9290611604565b68bdbc41e0348b300000811115610b925750610a929061170b565b686c6b935b8bbd400000811115610bad5750610a92906115c4565b681b1ae4d6e2ef5000001015610bc657610a92906116f8565b610a9290611660565b50508d81813d8311610bff575b610be68183611543565b810103126107b1578b610bfa6001926115b1565b610ab7565b503d610bdc565b925050508d81813d8311610c38575b610c1f8183611543565b810103126107b1578b610c3287926115b1565b5f610a82565b503d610c15565b925050508d81813d8311610c71575b610c588183611543565b810103126107b1578b610c6b87926115b1565b5f610384565b503d610c4e565b8b5184815282898201528d818981875afa9081156107bc5786918d918991610d89575b501603610cb057610cab90611604565b610361565b8b5184815282898201528d818981875afa80156107bc578c908890610d52575b16600114159050610ce457610cab906116e5565b848b8a5116601a81115f14610cfe575050610cab9061163d565b6012811115610d12575050610cab9061162a565b600a811115610d26575050610cab90611617565b6005811115610d3a575050610cab90611604565b1115610d4957610cab906115c4565b610cab90611660565b50508d81813d8311610d82575b610d698183611543565b810103126107b1578b610d7d6001926115b1565b610cd0565b503d610d5f565b925050508d81813d8311610dbb575b610da28183611543565b810103126107b1578b610db587926115b1565b5f610c9b565b503d610d98565b925050508d81813d8311610df4575b610ddb8183611543565b810103126107b1578b610dee87926115b1565b5f610350565b503d610dd1565b8b5184815282898201528d818981875afa9081156107bc5786918d918991610fa3575b501603610e3357610e2e90611673565b61032d565b8b5184815282898201528d818981875afa80156107bc578c908890610f6c575b16600114159050610e6757610e2e90611660565b60608901516907695a92c20d6fe00000811115610e885750610e2e9061163d565b69054b40b1f852bda00000811115610ea45750610e2e906116e5565b6903635c9adc5dea000000811115610ec05750610e2e90611604565b69028a857425466f800000811115610edc5750610e2e906115c4565b6901e7e4171bf4d3a00000811115610ef85750610e2e90611660565b69014542ba12a337c00000811115610f145750610e2e906116d2565b68bdbc41e0348b300000811115610f2f5750610e2e906116bf565b686c6b935b8bbd400000811115610f4a5750610e2e906116ac565b681b1ae4d6e2ef5000001015610f6357610e2e90611699565b610e2e90611686565b50508d81813d8311610f9c575b610f838183611543565b810103126107b1578b610f976001926115b1565b610e53565b503d610f79565b925050508d81813d8311610fd5575b610fbc8183611543565b810103126107b1578b610fcf87926115b1565b5f610e1e565b503d610fb2565b925050508d81813d831161100e575b610ff58183611543565b810103126107b1578b61100887926115b1565b5f61031c565b503d610feb565b8b5184815282898201528d818981875afa9081156107bc5786918d918991611123575b50160361104d5761104890611660565b6102f9565b8b5184815282898201528d818981875afa80156107bc578c9088906110ec575b16600114159050611081576110489061164d565b888d01518b16601e81111561109a57506110489061163d565b60158111156110ad57506110489061162a565b600d8111156110c0575061104890611617565b60078111156110d3575061104890611604565b600310156110e457611048906115c4565b50600a6102f9565b50508d81813d831161111c575b6111038183611543565b810103126107b1578b6111176001926115b1565b61106d565b503d6110f9565b925050508d81813d8311611155575b61113c8183611543565b810103126107b1578b61114f87926115b1565b5f611038565b503d611132565b909a508c81813d8311611190575b6111748183611543565b8101031261118c57611185906115b1565b998d6102e1565b8580fd5b503d61116a565b8c513d88823e3d90fd5b908092975081813d8311611292575b6111ba8183611543565b8101031261076457895191820182811067ffffffffffffffff821117611267578a526111e5816115b1565b82526111f28b82016115b1565b8b830152898101518a830152606081015160608301526080810151608083015260a081015160a083015260c081015160c083015261123260e082016115b1565b60e08301526101008082015190830152610120808201519083015261125b6101408092016115b1565b90820152948a8061029b565b85856041897f4e487b7100000000000000000000000000000000000000000000000000000000835252fd5b503d6111b0565b80fd5b83903461011b57817ffffffffffffffffffffffffffffffffffffffffffffffffffffffffffffffffc36011261011b5773ffffffffffffffffffffffffffffffffffffffff60209254169051908152f35b90503461011757827ffffffffffffffffffffffffffffffffffffffffffffffffffffffffffffffffc360112610117576001549173ffffffffffffffffffffffffffffffffffffffff91338385160361139d5750507fffffffffffffffffffffffff0000000000000000000000000000000000000000809216600155825491339083161783553391167f8be0079c531659141344cd1fd0a4f28419497f9722a3daafe3b4186f6b6457e08380a380f35b90602060849251917f08c379a0000000000000000000000000000000000000000000000000000000008352820152602960248201527f4f776e61626c6532537465703a2063616c6c6572206973206e6f74207468652060448201527f6e6577206f776e657200000000000000000000000000000000000000000000006064820152fd5b833461129957807ffffffffffffffffffffffffffffffffffffffffffffffffffffffffffffffffc360112611299576114576114c5565b8073ffffffffffffffffffffffffffffffffffffffff7fffffffffffffffffffffffff0000000000000000000000000000000000000000806001541660015582549081168355167f8be0079c531659141344cd1fd0a4f28419497f9722a3daafe3b4186f6b6457e08280a380f35b73ffffffffffffffffffffffffffffffffffffffff5f541633036114e557565b60646040517f08c379a000000000000000000000000000000000000000000000000000000000815260206004820152602060248201527f4f776e61626c653a2063616c6c6572206973206e6f7420746865206f776e65726044820152fd5b90601f7fffffffffffffffffffffffffffffffffffffffffffffffffffffffffffffffe0910116810190811067ffffffffffffffff82111761158457604052565b7f4e487b71000000000000000000000000000000000000000000000000000000005f52604160045260245ffd5b519061ffff821682036115c057565b5f80fd5b90600861ffff809316019182116115d757565b7f4e487b71000000000000000000000000000000000000000000000000000000005f52601160045260245ffd5b90600661ffff809316019182116115d757565b90600461ffff809316019182116115d757565b90600261ffff809316019182116115d757565b9061ffff8092169182116115d757565b90600561ffff809316019182116115d757565b90600a61ffff809316019182116115d757565b90600f61ffff809316019182116115d757565b90601461ffff809316019182116115d757565b90601261ffff809316019182116115d757565b90601061ffff809316019182116115d757565b90600e61ffff809316019182116115d757565b90600c61ffff809316019182116115d757565b90600361ffff809316019182116115d757565b90600961ffff809316019182116115d757565b90600761ffff809316019182116115d757565b90600161ffff809316019182116115d757565b90603261ffff809316019182116115d757565b90601961ffff809316019182116115d75756fea2646970667358221220ae16332e819593699c2675be77249dd360792c51fed68c9a9b7a6a769e79fdc864736f6c63430008140033",
  "linkReferences": {},
  "deployedLinkReferences": {}
}