{
  "_format": "hh-sol-artifact-1",
  "contractName": "PriceFeed",
  "sourceName": "contracts/PriceFeed.sol",
  "abi": [
    {
      "inputs": [],
      "stateMutability": "nonpayable",
      "type": "constructor"
    },
    {
      "anonymous": false,
      "inputs": [
        {
          "indexed": true,
          "internalType": "address",
          "name": "previousOwner",
          "type": "address"
        },
        {
          "indexed": true,
          "internalType": "address",
          "name": "newOwner",
          "type": "address"
        }
      ],
      "name": "OwnershipTransferStarted",
      "type": "event"
    },
    {
      "anonymous": false,
      "inputs": [
        {
          "indexed": true,
          "internalType": "address",
          "name": "previousOwner",
          "type": "address"
        },
        {
          "indexed": true,
          "internalType": "address",
          "name": "newOwner",
          "type": "address"
        }
      ],
      "name": "OwnershipTransferred",
      "type": "event"
    },
    {
      "anonymous": false,
      "inputs": [
        {
          "indexed": false,
          "internalType": "uint256",
          "name": "timestamp",
          "type": "uint256"
        },
        {
          "indexed": true,
          "internalType": "address",
          "name": "token",
          "type": "address"
        },
        {
          "indexed": true,
          "internalType": "address",
          "name": "priceFeed",
          "type": "address"
        }
      ],
      "name": "PriceFeedAdded",
      "type": "event"
    },
    {
      "inputs": [],
      "name": "acceptOwnership",
      "outputs": [],
      "stateMutability": "nonpayable",
      "type": "function"
    },
    {
      "inputs": [
        {
          "internalType": "address",
          "name": "_tokenAddress",
          "type": "address"
        },
        {
          "internalType": "address",
          "name": "_chainlinkPriceFeed",
          "type": "address"
        }
      ],
      "name": "addPriceFeed",
      "outputs": [],
      "stateMutability": "nonpayable",
      "type": "function"
    },
    {
      "inputs": [
        {
          "internalType": "address",
          "name": "usd_",
          "type": "address"
        }
      ],
      "name": "addUSDFeed",
      "outputs": [],
      "stateMutability": "nonpayable",
      "type": "function"
    },
    {
      "inputs": [
        {
          "internalType": "address",
          "name": "_tokenAddress",
          "type": "address"
        },
        {
          "internalType": "uint256",
          "name": "_amount",
          "type": "uint256"
        }
      ],
      "name": "amountInUSD",
      "outputs": [
        {
          "internalType": "uint256",
          "name": "",
          "type": "uint256"
        }
      ],
      "stateMutability": "view",
      "type": "function"
    },
    {
      "inputs": [
        {
          "internalType": "address",
          "name": "_base",
          "type": "address"
        },
        {
          "internalType": "address",
          "name": "_quote",
          "type": "address"
        },
        {
          "internalType": "uint256",
          "name": "_amount",
          "type": "uint256"
        }
      ],
      "name": "exchangeRate",
      "outputs": [
        {
          "internalType": "uint256",
          "name": "",
          "type": "uint256"
        }
      ],
      "stateMutability": "view",
      "type": "function"
    },
    {
      "inputs": [
        {
          "internalType": "address",
          "name": "_tokenAddress",
          "type": "address"
        }
      ],
      "name": "getLatestPriceUSD",
      "outputs": [
        {
          "internalType": "uint256",
          "name": "",
          "type": "uint256"
        },
        {
          "internalType": "uint8",
          "name": "",
          "type": "uint8"
        }
      ],
      "stateMutability": "view",
      "type": "function"
    },
    {
      "inputs": [],
      "name": "owner",
      "outputs": [
        {
          "internalType": "address",
          "name": "",
          "type": "address"
        }
      ],
      "stateMutability": "view",
      "type": "function"
    },
    {
      "inputs": [],
      "name": "pendingOwner",
      "outputs": [
        {
          "internalType": "address",
          "name": "",
          "type": "address"
        }
      ],
      "stateMutability": "view",
      "type": "function"
    },
    {
      "inputs": [],
      "name": "renounceOwnership",
      "outputs": [],
      "stateMutability": "nonpayable",
      "type": "function"
    },
    {
      "inputs": [
        {
          "internalType": "address",
          "name": "newOwner",
          "type": "address"
        }
      ],
      "name": "transferOwnership",
      "outputs": [],
      "stateMutability": "nonpayable",
      "type": "function"
    }
  ],
  "bytecode": "0x6080806040523461006257600180546001600160a01b03199081169091555f805433928116831782556001600160a01b0316907f8be0079c531659141344cd1fd0a4f28419497f9722a3daafe3b4186f6b6457e09080a36109c490816100678239f35b5f80fdfe6040608081526004361015610012575f80fd5b5f90813560e01c90816343a7b0c114610586578163701f660414610536578163715018a61461049157816379ba50971461035f5781638da5cb5b1461030e578163912d228f146102a657816398d423a114610254578163e30c397814610201578163e8a97a3e1461013b575063f2fde38b1461008c575f80fd5b346101385760207ffffffffffffffffffffffffffffffffffffffffffffffffffffffffffffffffc360112610138576100c361061d565b6100cb610667565b73ffffffffffffffffffffffffffffffffffffffff80911690817fffffffffffffffffffffffff000000000000000000000000000000000000000060015416176001558254167f38d16b8cac22d99fc7c124b9cd0de2d3fa1faef420bfe791d8c362d765e227008380a380f35b80fd5b9050346101fd57807ffffffffffffffffffffffffffffffffffffffffffffffffffffffffffffffffc3601126101fd5761017361061d565b7f1d6faa3aebf3e2db1b9604d052181d2eb65633d2d8f8612f39beacc8e6a8882c602061019e610644565b936101a7610667565b73ffffffffffffffffffffffffffffffffffffffff8094169384875260028352818720951694857fffffffffffffffffffffffff000000000000000000000000000000000000000082541617905551428152a380f35b5080fd5b9050346101fd57817ffffffffffffffffffffffffffffffffffffffffffffffffffffffffffffffffc3601126101fd5760209073ffffffffffffffffffffffffffffffffffffffff600154169051908152f35b82346101385760207ffffffffffffffffffffffffffffffffffffffffffffffffffffffffffffffffc360112610138575060ff61029761029261061d565b6106fc565b83519182529091166020820152f35b9050346101fd57807ffffffffffffffffffffffffffffffffffffffffffffffffffffffffffffffffc3601126101fd576020906103076102e461061d565b6024359073ffffffffffffffffffffffffffffffffffffffff6003541690610902565b9051908152f35b9050346101fd57817ffffffffffffffffffffffffffffffffffffffffffffffffffffffffffffffffc3601126101fd5773ffffffffffffffffffffffffffffffffffffffff60209254169051908152f35b9050346101fd57817ffffffffffffffffffffffffffffffffffffffffffffffffffffffffffffffffc3601126101fd576001549073ffffffffffffffffffffffffffffffffffffffff90338284160361040e57507fffffffffffffffffffffffff0000000000000000000000000000000000000000809216600155825491339083161783553391167f8be0079c531659141344cd1fd0a4f28419497f9722a3daafe3b4186f6b6457e08380a380f35b608490517f08c379a000000000000000000000000000000000000000000000000000000000815260206004820152602960248201527f4f776e61626c6532537465703a2063616c6c6572206973206e6f74207468652060448201527f6e6577206f776e657200000000000000000000000000000000000000000000006064820152fd5b823461013857807ffffffffffffffffffffffffffffffffffffffffffffffffffffffffffffffffc360112610138576104c8610667565b8073ffffffffffffffffffffffffffffffffffffffff7fffffffffffffffffffffffff0000000000000000000000000000000000000000806001541660015582549081168355167f8be0079c531659141344cd1fd0a4f28419497f9722a3daafe3b4186f6b6457e08280a380f35b9050346101fd5760607ffffffffffffffffffffffffffffffffffffffffffffffffffffffffffffffffc3601126101fd5760209061030761057561061d565b61057d610644565b60443591610902565b9050346101fd5760207ffffffffffffffffffffffffffffffffffffffffffffffffffffffffffffffffc3601126101fd5773ffffffffffffffffffffffffffffffffffffffff6105d461061d565b6105dc610667565b167fffffffffffffffffffffffff00000000000000000000000000000000000000009181836003541617600355818452600260205283209182541617905580f35b6004359073ffffffffffffffffffffffffffffffffffffffff8216820361064057565b5f80fd5b6024359073ffffffffffffffffffffffffffffffffffffffff8216820361064057565b73ffffffffffffffffffffffffffffffffffffffff5f5416330361068757565b60646040517f08c379a000000000000000000000000000000000000000000000000000000000815260206004820152602060248201527f4f776e61626c653a2063616c6c6572206973206e6f7420746865206f776e65726044820152fd5b519069ffffffffffffffffffff8216820361064057565b9073ffffffffffffffffffffffffffffffffffffffff8092165f928184526002602052604091818386205416156108a5576004929160a0918652600260205282862054168251938480927ffeaf968c0000000000000000000000000000000000000000000000000000000082525afa93841561089a57809281956107e8575b5082131561078b57509160ff1690565b606490517f08c379a000000000000000000000000000000000000000000000000000000000815260206004820152600f60248201527f4552525f5a45524f5f414e5357455200000000000000000000000000000000006044820152fd5b9250935060a03d8111610893575b7fffffffffffffffffffffffffffffffffffffffffffffffffffffffffffffffe0601f820116830183811067ffffffffffffffff8211176108665760a091849184528101031261086257610849826106e5565b5061085b6080602084015193016106e5565b935f61077b565b8380fd5b6024867f4e487b710000000000000000000000000000000000000000000000000000000081526041600452fd5b503d6107f6565b9051903d90823e3d90fd5b606483517f08c379a000000000000000000000000000000000000000000000000000000000815260206004820152601160248201527f4552525f544f4b454e5f414444524553530000000000000000000000000000006044820152fd5b610911610918919392936106fc565b50926106fc565b5091818102918183041490151715610961578115610934570490565b7f4e487b71000000000000000000000000000000000000000000000000000000005f52601260045260245ffd5b7f4e487b71000000000000000000000000000000000000000000000000000000005f52601160045260245ffdfea264697066735822122040e943ae674a2b0b7114aa799a39dbbc25660ccaa3bcfd6a5a99b2e864cd56f764736f6c63430008140033",
  "linkReferences": {},
  "deployedLinkReferences": {}
}