{
  "_format": "hh-sol-artifact-1",
  "contractName": "Errors",
  "sourceName": "contracts/libraries/Errors.sol",
  "abi": [
    {
      "inputs": [],
      "name": "PRICE_FEED_TOKEN_BELOW_ZERO",
      "outputs": [
        {
          "internalType": "string",
          "name": "",
          "type": "string"
        }
      ],
      "stateMutability": "view",
      "type": "function"
    },
    {
      "inputs": [],
      "name": "PRICE_FEED_TOKEN_NOT_SUPPORTED",
      "outputs": [
        {
          "internalType": "string",
          "name": "",
          "type": "string"
        }
      ],
      "stateMutability": "view",
      "type": "function"
    }
  ],
  "bytecode": "0x6080806040523461001a576101ef908161001f823930815050f35b5f80fdfe60806040526004361015610011575f80fd5b5f803560e01c80634933f5111461009d5763d517828f14610030575f80fd5b807ffffffffffffffffffffffffffffffffffffffffffffffffffffffffffffffffc36011261009a57610096610064610104565b7f3130310000000000000000000000000000000000000000000000000000000000602082015260405191829182610155565b0390f35b80fd5b50807ffffffffffffffffffffffffffffffffffffffffffffffffffffffffffffffffc36011261009a576100966100d2610104565b7f3130300000000000000000000000000000000000000000000000000000000000602082015260405191829182610155565b604051906040820182811067ffffffffffffffff8211176101285760405260038252565b7f4e487b71000000000000000000000000000000000000000000000000000000005f52604160045260245ffd5b6020808252825181830181905293925f5b8581106101a5575050507fffffffffffffffffffffffffffffffffffffffffffffffffffffffffffffffe0601f845f6040809697860101520116010190565b81810183015184820160400152820161016656fea2646970667358221220d859425aba3c46f264a7d8e9bda734c5d738ffe9f28433e655caed16f0124dbc64736f6c63430008140033",
  "linkReferences": {},
  "deployedLinkReferences": {}
}