{
  "_format": "hh-sol-artifact-1",
  "contractName": "LendingPool",
  "sourceName": "contracts/LendingPool.sol",
  "abi": [
    {
      "inputs": [],
      "stateMutability": "nonpayable",
      "type": "constructor"
    },
    {
      "anonymous": false,
      "inputs": [
        {
          "indexed": false,
          "internalType": "uint256",
          "name": "id",
          "type": "uint256"
        },
        {
          "indexed": false,
          "internalType": "uint256",
          "name": "timestamp",
          "type": "uint256"
        },
        {
          "indexed": false,
          "internalType": "address",
          "name": "from",
          "type": "address"
        },
        {
          "indexed": false,
          "internalType": "address",
          "name": "to",
          "type": "address"
        },
        {
          "indexed": false,
          "internalType": "uint256",
          "name": "fieldId",
          "type": "uint256"
        }
      ],
      "name": "Notify",
      "type": "event"
    },
    {
      "anonymous": false,
      "inputs": [
        {
          "indexed": true,
          "internalType": "address",
          "name": "previousOwner",
          "type": "address"
        },
        {
          "indexed": true,
          "internalType": "address",
          "name": "newOwner",
          "type": "address"
        }
      ],
      "name": "OwnershipTransferStarted",
      "type": "event"
    },
    {
      "anonymous": false,
      "inputs": [
        {
          "indexed": true,
          "internalType": "address",
          "name": "previousOwner",
          "type": "address"
        },
        {
          "indexed": true,
          "internalType": "address",
          "name": "newOwner",
          "type": "address"
        }
      ],
      "name": "OwnershipTransferred",
      "type": "event"
    },
    {
      "anonymous": false,
      "inputs": [
        {
          "indexed": false,
          "internalType": "address",
          "name": "account",
          "type": "address"
        }
      ],
      "name": "Paused",
      "type": "event"
    },
    {
      "anonymous": false,
      "inputs": [
        {
          "indexed": false,
          "internalType": "uint256",
          "name": "transferId",
          "type": "uint256"
        },
        {
          "indexed": false,
          "internalType": "uint256",
          "name": "offerId",
          "type": "uint256"
        },
        {
          "indexed": false,
          "internalType": "address",
          "name": "from",
          "type": "address"
        },
        {
          "indexed": false,
          "internalType": "uint256",
          "name": "amount",
          "type": "uint256"
        },
        {
          "indexed": false,
          "internalType": "address",
          "name": "token",
          "type": "address"
        },
        {
          "indexed": false,
          "internalType": "enum LendingPoolProvider.Type",
          "name": "transferType",
          "type": "uint8"
        },
        {
          "indexed": false,
          "internalType": "uint256",
          "name": "timestamp",
          "type": "uint256"
        }
      ],
      "name": "Transfer",
      "type": "event"
    },
    {
      "anonymous": false,
      "inputs": [
        {
          "indexed": false,
          "internalType": "address",
          "name": "account",
          "type": "address"
        }
      ],
      "name": "Unpaused",
      "type": "event"
    },
    {
      "inputs": [],
      "name": "ACCEPT_REQUEST",
      "outputs": [
        {
          "internalType": "uint256",
          "name": "",
          "type": "uint256"
        }
      ],
      "stateMutability": "view",
      "type": "function"
    },
    {
      "inputs": [],
      "name": "EXPIRE_REQUEST",
      "outputs": [
        {
          "internalType": "uint256",
          "name": "",
          "type": "uint256"
        }
      ],
      "stateMutability": "view",
      "type": "function"
    },
    {
      "inputs": [],
      "name": "INTEREST_RATE_DENOMINATOR",
      "outputs": [
        {
          "internalType": "uint256",
          "name": "",
          "type": "uint256"
        }
      ],
      "stateMutability": "view",
      "type": "function"
    },
    {
      "inputs": [],
      "name": "LENDINGPOOL_VERSION",
      "outputs": [
        {
          "internalType": "uint256",
          "name": "",
          "type": "uint256"
        }
      ],
      "stateMutability": "view",
      "type": "function"
    },
    {
      "inputs": [],
      "name": "LIQUIDATION",
      "outputs": [
        {
          "internalType": "uint256",
          "name": "",
          "type": "uint256"
        }
      ],
      "stateMutability": "view",
      "type": "function"
    },
    {
      "inputs": [],
      "name": "PERCENT",
      "outputs": [
        {
          "internalType": "uint16",
          "name": "",
          "type": "uint16"
        }
      ],
      "stateMutability": "view",
      "type": "function"
    },
    {
      "inputs": [],
      "name": "REJECT_REQUEST",
      "outputs": [
        {
          "internalType": "uint256",
          "name": "",
          "type": "uint256"
        }
      ],
      "stateMutability": "view",
      "type": "function"
    },
    {
      "inputs": [],
      "name": "REPAID_LOAN",
      "outputs": [
        {
          "internalType": "uint256",
          "name": "",
          "type": "uint256"
        }
      ],
      "stateMutability": "view",
      "type": "function"
    },
    {
      "inputs": [
        {
          "internalType": "uint256",
          "name": "offerId",
          "type": "uint256"
        },
        {
          "internalType": "uint16",
          "name": "percentage",
          "type": "uint16"
        }
      ],
      "name": "acceptBorrowingOffer",
      "outputs": [],
      "stateMutability": "payable",
      "type": "function"
    },
    {
      "inputs": [
        {
          "internalType": "uint256",
          "name": "requestId",
          "type": "uint256"
        }
      ],
      "name": "acceptBorrowingRequest",
      "outputs": [],
      "stateMutability": "nonpayable",
      "type": "function"
    },
    {
      "inputs": [
        {
          "internalType": "uint256",
          "name": "offerId",
          "type": "uint256"
        },
        {
          "internalType": "uint16",
          "name": "percentage",
          "type": "uint16"
        },
        {
          "internalType": "address",
          "name": "collateralToken",
          "type": "address"
        }
      ],
      "name": "acceptLendingOffer",
      "outputs": [],
      "stateMutability": "payable",
      "type": "function"
    },
    {
      "inputs": [
        {
          "internalType": "uint256",
          "name": "requestId",
          "type": "uint256"
        }
      ],
      "name": "acceptLendingRequest",
      "outputs": [],
      "stateMutability": "payable",
      "type": "function"
    },
    {
      "inputs": [],
      "name": "acceptOwnership",
      "outputs": [],
      "stateMutability": "nonpayable",
      "type": "function"
    },
    {
      "inputs": [
        {
          "internalType": "uint256",
          "name": "requestId",
          "type": "uint256"
        }
      ],
      "name": "cancelRequest",
      "outputs": [],
      "stateMutability": "nonpayable",
      "type": "function"
    },
    {
      "inputs": [
        {
          "internalType": "uint16",
          "name": "percentage",
          "type": "uint16"
        }
      ],
      "name": "checkPercentage",
      "outputs": [],
      "stateMutability": "pure",
      "type": "function"
    },
    {
      "inputs": [
        {
          "internalType": "address",
          "name": "token",
          "type": "address"
        },
        {
          "internalType": "address payable",
          "name": "receiver",
          "type": "address"
        },
        {
          "internalType": "uint256",
          "name": "amount",
          "type": "uint256"
        }
      ],
      "name": "claim",
      "outputs": [],
      "stateMutability": "nonpayable",
      "type": "function"
    },
    {
      "inputs": [
        {
          "internalType": "uint256",
          "name": "loanId",
          "type": "uint256"
        }
      ],
      "name": "claimBorrowedPrincipal",
      "outputs": [],
      "stateMutability": "nonpayable",
      "type": "function"
    },
    {
      "inputs": [
        {
          "internalType": "uint256",
          "name": "loanId",
          "type": "uint256"
        }
      ],
      "name": "claimCollateral",
      "outputs": [],
      "stateMutability": "nonpayable",
      "type": "function"
    },
    {
      "inputs": [
        {
          "internalType": "uint256",
          "name": "loanId",
          "type": "uint256"
        }
      ],
      "name": "claimDefaultCollateral",
      "outputs": [],
      "stateMutability": "nonpayable",
      "type": "function"
    },
    {
      "inputs": [
        {
          "internalType": "uint256",
          "name": "loanId",
          "type": "uint256"
        }
      ],
      "name": "claimPrincipal",
      "outputs": [],
      "stateMutability": "nonpayable",
      "type": "function"
    },
    {
      "inputs": [
        {
          "internalType": "address",
          "name": "principalToken",
          "type": "address"
        },
        {
          "internalType": "uint256",
          "name": "principalAmount",
          "type": "uint256"
        },
        {
          "internalType": "address",
          "name": "collateralToken",
          "type": "address"
        },
        {
          "internalType": "uint256",
          "name": "interestRate",
          "type": "uint256"
        },
        {
          "internalType": "uint16",
          "name": "daysToMaturity",
          "type": "uint16"
        },
        {
          "internalType": "uint16",
          "name": "hoursToExpire",
          "type": "uint16"
        }
      ],
      "name": "createBorrowingOffer",
      "outputs": [],
      "stateMutability": "payable",
      "type": "function"
    },
    {
      "inputs": [
        {
          "internalType": "uint256",
          "name": "offerId",
          "type": "uint256"
        },
        {
          "internalType": "uint16",
          "name": "percentage",
          "type": "uint16"
        },
        {
          "internalType": "address",
          "name": "collateralToken",
          "type": "address"
        },
        {
          "internalType": "uint256",
          "name": "interestRate",
          "type": "uint256"
        },
        {
          "internalType": "uint16",
          "name": "daysToMaturity",
          "type": "uint16"
        },
        {
          "internalType": "uint16",
          "name": "hoursToExpire",
          "type": "uint16"
        }
      ],
      "name": "createBorrowingRequest",
      "outputs": [],
      "stateMutability": "payable",
      "type": "function"
    },
    {
      "inputs": [
        {
          "internalType": "uint256",
          "name": "principalAmount_",
          "type": "uint256"
        },
        {
          "internalType": "address",
          "name": "principalToken",
          "type": "address"
        },
        {
          "internalType": "address[]",
          "name": "collateralTokens",
          "type": "address[]"
        },
        {
          "internalType": "uint16",
          "name": "daysToMaturity",
          "type": "uint16"
        },
        {
          "internalType": "uint256",
          "name": "interestRate",
          "type": "uint256"
        },
        {
          "internalType": "uint16",
          "name": "daysToExpire",
          "type": "uint16"
        }
      ],
      "name": "createLendingOffer",
      "outputs": [],
      "stateMutability": "payable",
      "type": "function"
    },
    {
      "inputs": [
        {
          "internalType": "uint256",
          "name": "offerId",
          "type": "uint256"
        },
        {
          "internalType": "uint16",
          "name": "percentage",
          "type": "uint16"
        },
        {
          "internalType": "uint16",
          "name": "daysToMaturity",
          "type": "uint16"
        },
        {
          "internalType": "uint256",
          "name": "interestRate",
          "type": "uint256"
        },
        {
          "internalType": "uint16",
          "name": "hoursToExpire",
          "type": "uint16"
        }
      ],
      "name": "createLendingRequest",
      "outputs": [],
      "stateMutability": "payable",
      "type": "function"
    },
    {
      "inputs": [
        {
          "internalType": "uint256",
          "name": "principal",
          "type": "uint256"
        },
        {
          "internalType": "uint256",
          "name": "durationSecs",
          "type": "uint256"
        },
        {
          "internalType": "uint256",
          "name": "interestRate",
          "type": "uint256"
        }
      ],
      "name": "getFullInterestAmount",
      "outputs": [
        {
          "internalType": "uint256",
          "name": "",
          "type": "uint256"
        }
      ],
      "stateMutability": "pure",
      "type": "function"
    },
    {
      "inputs": [],
      "name": "getVersion",
      "outputs": [
        {
          "internalType": "uint256",
          "name": "",
          "type": "uint256"
        }
      ],
      "stateMutability": "pure",
      "type": "function"
    },
    {
      "inputs": [
        {
          "internalType": "uint256",
          "name": "loanId",
          "type": "uint256"
        }
      ],
      "name": "liquidateLoan",
      "outputs": [],
      "stateMutability": "nonpayable",
      "type": "function"
    },
    {
      "inputs": [],
      "name": "nativeAddress",
      "outputs": [
        {
          "internalType": "address",
          "name": "",
          "type": "address"
        }
      ],
      "stateMutability": "view",
      "type": "function"
    },
    {
      "inputs": [
        {
          "internalType": "address",
          "name": "from",
          "type": "address"
        },
        {
          "internalType": "address",
          "name": "to",
          "type": "address"
        },
        {
          "internalType": "uint256",
          "name": "notification",
          "type": "uint256"
        },
        {
          "internalType": "uint256",
          "name": "fieldId",
          "type": "uint256"
        }
      ],
      "name": "notify",
      "outputs": [],
      "stateMutability": "nonpayable",
      "type": "function"
    },
    {
      "inputs": [],
      "name": "owner",
      "outputs": [
        {
          "internalType": "address",
          "name": "",
          "type": "address"
        }
      ],
      "stateMutability": "view",
      "type": "function"
    },
    {
      "inputs": [],
      "name": "paused",
      "outputs": [
        {
          "internalType": "bool",
          "name": "",
          "type": "bool"
        }
      ],
      "stateMutability": "view",
      "type": "function"
    },
    {
      "inputs": [],
      "name": "pendingOwner",
      "outputs": [
        {
          "internalType": "address",
          "name": "",
          "type": "address"
        }
      ],
      "stateMutability": "view",
      "type": "function"
    },
    {
      "inputs": [
        {
          "internalType": "uint256",
          "name": "total",
          "type": "uint256"
        },
        {
          "internalType": "uint160",
          "name": "percent",
          "type": "uint160"
        }
      ],
      "name": "percentageOf",
      "outputs": [
        {
          "internalType": "uint256",
          "name": "",
          "type": "uint256"
        }
      ],
      "stateMutability": "pure",
      "type": "function"
    },
    {
      "inputs": [
        {
          "internalType": "uint256",
          "name": "offerId",
          "type": "uint256"
        },
        {
          "internalType": "uint16",
          "name": "toExpire",
          "type": "uint16"
        }
      ],
      "name": "reActivateOffer",
      "outputs": [],
      "stateMutability": "nonpayable",
      "type": "function"
    },
    {
      "inputs": [
        {
          "internalType": "uint256",
          "name": "requestId",
          "type": "uint256"
        }
      ],
      "name": "rejectRequest",
      "outputs": [],
      "stateMutability": "nonpayable",
      "type": "function"
    },
    {
      "inputs": [
        {
          "internalType": "uint256",
          "name": "offerId",
          "type": "uint256"
        },
        {
          "internalType": "uint16",
          "name": "percentage",
          "type": "uint16"
        }
      ],
      "name": "removeCollateral",
      "outputs": [],
      "stateMutability": "nonpayable",
      "type": "function"
    },
    {
      "inputs": [
        {
          "internalType": "uint256",
          "name": "offerId",
          "type": "uint256"
        },
        {
          "internalType": "uint16",
          "name": "percentage",
          "type": "uint16"
        }
      ],
      "name": "removePrincipal",
      "outputs": [],
      "stateMutability": "nonpayable",
      "type": "function"
    },
    {
      "inputs": [],
      "name": "renounceOwnership",
      "outputs": [],
      "stateMutability": "nonpayable",
      "type": "function"
    },
    {
      "inputs": [
        {
          "internalType": "uint256",
          "name": "loanId",
          "type": "uint256"
        }
      ],
      "name": "repayLiquidatedLoan",
      "outputs": [],
      "stateMutability": "payable",
      "type": "function"
    },
    {
      "inputs": [
        {
          "internalType": "uint256",
          "name": "loanId",
          "type": "uint256"
        },
        {
          "internalType": "uint16",
          "name": "percentage",
          "type": "uint16"
        }
      ],
      "name": "repayLoan",
      "outputs": [],
      "stateMutability": "payable",
      "type": "function"
    },
    {
      "inputs": [
        {
          "internalType": "address",
          "name": "ltv_",
          "type": "address"
        },
        {
          "internalType": "address",
          "name": "activity_",
          "type": "address"
        },
        {
          "internalType": "address",
          "name": "priceFeed_",
          "type": "address"
        }
      ],
      "name": "setFeeds",
      "outputs": [],
      "stateMutability": "nonpayable",
      "type": "function"
    },
    {
      "inputs": [
        {
          "internalType": "address",
          "name": "loanManager_",
          "type": "address"
        },
        {
          "internalType": "address",
          "name": "offerManager_",
          "type": "address"
        },
        {
          "internalType": "address",
          "name": "feeManager_",
          "type": "address"
        }
      ],
      "name": "setManagers",
      "outputs": [],
      "stateMutability": "nonpayable",
      "type": "function"
    },
    {
      "inputs": [
        {
          "internalType": "uint256",
          "name": "offerId",
          "type": "uint256"
        },
        {
          "internalType": "address",
          "name": "from",
          "type": "address"
        },
        {
          "internalType": "uint256",
          "name": "amount",
          "type": "uint256"
        },
        {
          "internalType": "address",
          "name": "token",
          "type": "address"
        },
        {
          "internalType": "enum LendingPoolProvider.Type",
          "name": "transferType",
          "type": "uint8"
        }
      ],
      "name": "transfer",
      "outputs": [],
      "stateMutability": "nonpayable",
      "type": "function"
    },
    {
      "inputs": [
        {
          "internalType": "address",
          "name": "newOwner",
          "type": "address"
        }
      ],
      "name": "transferOwnership",
      "outputs": [],
      "stateMutability": "nonpayable",
      "type": "function"
    }
  ],
  "bytecode": "0x6080806040523461006d576001805560035460028054336001600160a01b0319821681179092556001600160a01b03167f8be0079c531659141344cd1fd0a4f28419497f9722a3daafe3b4186f6b6457e05f80a36001600160a81b03191660035561587b9081620000728239f35b5f80fdfe6080806040526004361015610012575f80fd5b5f90813560e01c90816303e77837146147e2575080630548db12146147495780630c49f023146145a75780630d11c0d31461177f5780630d8e6e2c1461361b57806310b3ed2a146145245780632672a87a14613f435780632d7788db14613dd55780632e47633714613da65780633015394c14613b63578063380dad5714613b475780634add7c82146136375780634ae322351461361b57806350a55fe6146135ff57806353188b14146131545780635c7f31aa14612b035780635c975abb14612add5780635d03999f14612a4457806361ba944314612a2f578063628118ee1461250d578063669c987f146124655780636fb93167146122d9578063715018a61461225057806379ba50971461213d5780637a5ae69e146121145780637cc5805a14611f6d5780638da5cb5b14611f39578063996cba6814611dac578063a33928da146118b8578063a6aea41514611835578063b2ac850d1461179b578063b85a8b201461177f578063b91dc4bb146116fb578063c1bc89ef1461148f578063c49785b41461140c578063cc3266e8146113e9578063ccdd9f5d14610e43578063e0b2695914610e02578063e0f7dffd14610db6578063e30c397814610d82578063e643321b14610d66578063e826fbe7146103d4578063f2fde38b146103445763f9af057914610202575f80fd5b346103415760206003193601126103415761021b615497565b6102236149b2565b6007546040517ff400c74300000000000000000000000000000000000000000000000000000000815260048035908201523360248201529073ffffffffffffffffffffffffffffffffffffffff9060609083908316818681604481015b03925af19081156102e05783908493859361030a575b50821673eeeeeeeeeeeeeeeeeeeeeeeeeeeeeeeeeeeeeeee81036102f5575083808280156102eb575b8280929181923390f1156102e0576102d9925b33906155d7565b6001805580f35b6040513d85823e3d90fd5b6108fc91506102bf565b92610305826102d9953390615138565b6102d2565b9150925061032f915060603d811161033a575b61032781836148da565b810190615475565b92919092915f610296565b503d61031d565b80fd5b50346103415760206003193601126103415761035e6147fd565b610366614933565b73ffffffffffffffffffffffffffffffffffffffff80911690817fffffffffffffffffffffffff00000000000000000000000000000000000000006003541617600355600254167f38d16b8cac22d99fc7c124b9cd0de2d3fa1faef420bfe791d8c362d765e227008380a380f35b506060600319360112610341576103e9614866565b6103f1614843565b6103f96149b2565b61040282615770565b73ffffffffffffffffffffffffffffffffffffffff60085416604051927f4579268a00000000000000000000000000000000000000000000000000000000845260043560048501528484602481855afa938415610b13578594610d42575b506040517f39700629000000000000000000000000000000000000000000000000000000008152600480359082015273ffffffffffffffffffffffffffffffffffffffff84166024820152916020908390604490829089905af1918215610b13576104e6926104d6918791610d13575b50614f9c565b61ffff608085015191169061573f565b60055460408481015190517f912d228f00000000000000000000000000000000000000000000000000000000815273ffffffffffffffffffffffffffffffffffffffff91821660048201526024810184905292949291602091839160449183918a91165af1908115610b13578591610ce0575b506006546040517f8a83f8cc00000000000000000000000000000000000000000000000000000000815233600482015260248101929092526020908290604490829073ffffffffffffffffffffffffffffffffffffffff165afa908115610b13578591610ca6575b5060055460408381015190517f701f660400000000000000000000000000000000000000000000000000000000815273ffffffffffffffffffffffffffffffffffffffff918216600482015285821660248201526044810187905291602091839160649183918b91165af1908115610b86578691610c74575b506004602073ffffffffffffffffffffffffffffffffffffffff60065416604051928380927fd104a1360000000000000000000000000000000000000000000000000000000082525afa908115610c69578791610c1f575b506106aa9260ff6106a4921690614dca565b9061573f565b73eeeeeeeeeeeeeeeeeeeeeeeeeeeeeeeeeeeeeeee93908573ffffffffffffffffffffffffffffffffffffffff8516868103610c09575050348110610bab5785945b6106fa858333600435615649565b8273ffffffffffffffffffffffffffffffffffffffff6040860151169182145f14610b9b5750508480838015610b91575b8280929181923390f115610aef575b61076273ffffffffffffffffffffffffffffffffffffffff60408501511683336004356155d7565b6005546040517f912d228f00000000000000000000000000000000000000000000000000000000815273ffffffffffffffffffffffffffffffffffffffff868116600483015260248201849052909591602091879160449183918b91165af1948515610b86578695610b4d575b508260209173ffffffffffffffffffffffffffffffffffffffff6007541690886101c08801516107fe81615001565b6108858a73ffffffffffffffffffffffffffffffffffffffff60408c015116928b60a081015173ffffffffffffffffffffffffffffffffffffffff61012061ffff60c08501511693015116936040519c8d9b8c9a8b997f19467e27000000000000000000000000000000000000000000000000000000008b52339760043560048d016150b8565b03925af18015610b1357610b1e575b5073ffffffffffffffffffffffffffffffffffffffff60085416803b15610ab2578480916044604051809481937fa5ff109000000000000000000000000000000000000000000000000000000000835260043560048401528760248401525af1908115610b13578591610afa575b505060055460408381015190517f912d228f00000000000000000000000000000000000000000000000000000000815273ffffffffffffffffffffffffffffffffffffffff91821660048201526024810193909352602091839160449183918991165af1908115610aef578491610ab6575b5073ffffffffffffffffffffffffffffffffffffffff61012081600454169301511690823b15610ab2576040517f519badd600000000000000000000000000000000000000000000000000000000815273ffffffffffffffffffffffffffffffffffffffff92909216600483015233602483015260448201529083908290606490829084905af19081156102e0578391610a9b575b505073ffffffffffffffffffffffffffffffffffffffff60045416803b15610a97576040517f63a6c981000000000000000000000000000000000000000000000000000000008152336004820152602481019290925282908290818381604481015b03925af18015610a8c57610a7c5750f35b610a8590614899565b6103415780f35b6040513d84823e3d90fd5b5050fd5b610aa490614899565b610aaf57815f610a09565b50fd5b8480fd5b9350506020833d602011610ae7575b81610ad2602093836148da565b81010312610ae3578392515f610974565b5f80fd5b3d9150610ac5565b6040513d86823e3d90fd5b610b0390614899565b610b0e57835f610902565b505050fd5b6040513d87823e3d90fd5b6020809295503d8311610b46575b610b3681836148da565b81010312610ae35783925f610894565b503d610b2c565b955093506020853d602011610b7e575b81610b6a602093836148da565b81010312610ae357935185949093826107cf565b3d9150610b5d565b6040513d88823e3d90fd5b6108fc915061072b565b610ba6913390615138565b61073a565b60646040517f08c379a000000000000000000000000000000000000000000000000000000000815260206004820152601560248201527f4552525f434f4c4c41544552414c5f414d4f554e5400000000000000000000006044820152fd5b82610c1a9197929730903390614a1f565b6106ec565b90506020813d602011610c61575b81610c3a602093836148da565b81010312610c5d576106aa9260ff610c546106a493614dbc565b92505092610692565b8680fd5b3d9150610c2d565b6040513d89823e3d90fd5b90506020813d602011610c9e575b81610c8f602093836148da565b81010312610ae357515f61063a565b3d9150610c82565b90506020813d602011610cd8575b81610cc1602093836148da565b81010312610ab257610cd290614d9b565b5f6105c1565b3d9150610cb4565b90506020813d602011610d0b575b81610cfb602093836148da565b81010312610ae357516020610559565b3d9150610cee565b610d35915060203d602011610d3b575b610d2d81836148da565b810190614ab6565b5f6104d0565b503d610d23565b610d5f9194503d8087833e610d5781836148da565b810190614e2b565b925f610460565b5034610341578060031936011261034157602060405160668152f35b5034610341578060031936011261034157602073ffffffffffffffffffffffffffffffffffffffff60035416604051908152f35b5034610341576060600319360112610341576020610dfa6004356064670de0b6b3a7640000610df2602435610ded6044358661572c565b61572c565b040490615468565b604051908152f35b5034610341576040600319360112610341576024359073ffffffffffffffffffffffffffffffffffffffff82168203610341576020610dfa8360043561573f565b50346103415780602080600319360112610aaf57610e5f615497565b73ffffffffffffffffffffffffffffffffffffffff90828260075416604051907f504006ca0000000000000000000000000000000000000000000000000000000082526004356004830152816024816102c09586945af1918215610b135785926113bc575b5050610140810151610ed6904261542e565b9260a0820193845190610120840151610eef908361572c565b90610ef99161572c565b670de0b6b3a7640000900460649004610f1191615468565b81600554169386836040860151169282606087019486865116986040518095818094877f701f6604000000000000000000000000000000000000000000000000000000009e8f84526004840192610f929360409194939294606082019573ffffffffffffffffffffffffffffffffffffffff80921683521660208201520152565b03925af191821561137f57899261138a575b50828560055416918660408901511692610fc488885116928c519061542e565b6040518b815273ffffffffffffffffffffffffffffffffffffffff9586166004820152929094166024830152604482019390935291829060649082908d905af190811561137f57899161134d575b5088908386600954166004604051809581937fa001ecdd0000000000000000000000000000000000000000000000000000000083525af1908115611342578a91611306575b611061925061573f565b9060e08601968751611073848461542e565b1161123e5750611083828261542e565b975196518181106111fc5750507f8a8cb0fe37d0c19cc9895f868058c082887e682f711d8492ab309eb12e9f29df9160a091955b85610280820151169051906040519260688452429084015233604084015260608301526080820152a181806009541691511690803b15610c5d576040517fef6506db00000000000000000000000000000000000000000000000000000000815273ffffffffffffffffffffffffffffffffffffffff9290921660048301526024820184905286908290604490829084905af1908115610b865786916111e8575b50506111689060075416918461542e565b90803b15610ab2576040517f3799ba3f00000000000000000000000000000000000000000000000000000000815260048035908201526024810193909352604483019390935260648201529082908290608490829084905af18015610a8c576111d4575b506001805580f35b6111dd90614899565b61034157805f6111cc565b6111f190614899565b610ab257845f611157565b7f8a8cb0fe37d0c19cc9895f868058c082887e682f711d8492ab309eb12e9f29df939198508061123260a094611238939b61542e565b9061542e565b956110b7565b9651600554855160408981015190519a8b5273ffffffffffffffffffffffffffffffffffffffff918916821660048c015288161660248a0152604489018290529098509296928792508391508516818a816064810103925af1908115610c695787916112d2575b5060a07f8a8cb0fe37d0c19cc9895f868058c082887e682f711d8492ab309eb12e9f29df919588956110b7565b809750858092503d83116112ff575b6112eb81836148da565b81010312610ae357945186959060a06112a5565b503d6112e1565b90508382813d831161133b575b61131d81836148da565b810103126113375761133161106192614d9b565b90611057565b8980fd5b503d611313565b6040513d8c823e3d90fd5b809950838092503d8311611378575b61136681836148da565b81010312610ae3578880985190611012565b503d61135c565b6040513d8b823e3d90fd5b985090508188813d81116113b5575b6113a381836148da565b81010312610ae357889751905f610fa4565b503d611399565b6113db9250803d106113e2575b6113d381836148da565b8101906152ea565b5f80610ec4565b503d6113c9565b50346103415780600319360112610341576020604051670de0b6b3a76400008152f35b503461034157602060031936011261034157611426615497565b61142e6149b2565b6007546040517fa5aca38000000000000000000000000000000000000000000000000000000000815260048035908201523360248201529073ffffffffffffffffffffffffffffffffffffffff906060908390831681868160448101610280565b5060c0600319360112610341576004356114a7614820565b60443567ffffffffffffffff81116116f757366023820112156116f7578060040135906114d38261491b565b906114e160405192836148da565b82825260208201906024829460051b820101903682116116f357602401915b8183106116c6575050506064359161ffff83168303610ae357611521614888565b9461152a6149b2565b73ffffffffffffffffffffffffffffffffffffffff851673eeeeeeeeeeeeeeeeeeeeeeeeeeeeeeeeeeeeeeee0361169657503492918661ffff9692935b73ffffffffffffffffffffffffffffffffffffffff60085416926040519889957fc44df3400000000000000000000000000000000000000000000000000000000087528160e488019473ffffffffffffffffffffffffffffffffffffffff8c1660048a01528a60248a015260843560448a015216606488015216608486015260e060a48601525180915261010484019490825b818110611664575050508290816020953360c483015203925af18015610aef578490611630575b61162d935033906156bb565b80f35b506020833d60201161165c575b8161164a602093836148da565b81010312610ae35761162d9251611621565b3d915061163d565b825173ffffffffffffffffffffffffffffffffffffffff1687526020968701968a96508b9450909201916001016115fa565b926116b984303373ffffffffffffffffffffffffffffffffffffffff8916614a1f565b918661ffff969293611567565b823573ffffffffffffffffffffffffffffffffffffffff81168103610ae357815260209283019201611500565b8780fd5b8380fd5b5034610341576080600319360112610341577f8a8cb0fe37d0c19cc9895f868058c082887e682f711d8492ab309eb12e9f29df60a06117386147fd565b611740614820565b9060405191604435835242602084015273ffffffffffffffffffffffffffffffffffffffff80921660408401521660608201526064356080820152a180f35b5034610341578060031936011261034157602060405160648152f35b503461034157604060031936011261034157806117b6614866565b6117be6149b2565b73ffffffffffffffffffffffffffffffffffffffff6008541690813b15610a975761ffff606484928360405195869485937f099bfe6b00000000000000000000000000000000000000000000000000000000855260043560048601521660248401523360448401525af18015610a8c57610a7c5750f35b50346103415760206003193601126103415761184f615497565b6118576149b2565b6007546040517fe41936d700000000000000000000000000000000000000000000000000000000815260048035908201523360248201529073ffffffffffffffffffffffffffffffffffffffff906060908390831681868160448101610280565b50604060031936011261034157806004356118d1614866565b6118d96149b2565b6118e281615770565b60248373ffffffffffffffffffffffffffffffffffffffff60085416604051928380927f4579268a0000000000000000000000000000000000000000000000000000000082528760048301525afa908115610aef578491611d92575b5061196261195761ffff6101a08401519416809461573f565b92608083015161573f565b9173ffffffffffffffffffffffffffffffffffffffff6040830151168373eeeeeeeeeeeeeeeeeeeeeeeeeeeeeeeeeeeeeeee82145f14611d805790503410610ab2575b6119cb73ffffffffffffffffffffffffffffffffffffffff6040840151168433876156bb565b610120820193611a1073ffffffffffffffffffffffffffffffffffffffff8651168373ffffffffffffffffffffffffffffffffffffffff610160870151169184615649565b6005546101608401516040517f912d228f00000000000000000000000000000000000000000000000000000000815273ffffffffffffffffffffffffffffffffffffffff91821660048201526024810185905291602091839160449183918c91165af1908115610c69578791611d48575b506020859173ffffffffffffffffffffffffffffffffffffffff60075416868a8a611b5283518a896101c087015194611ab986615001565b73ffffffffffffffffffffffffffffffffffffffff6040890151169773ffffffffffffffffffffffffffffffffffffffff610160820151169a73ffffffffffffffffffffffffffffffffffffffff61ffff60c060a085015194015116935116946040519e8f9d8e9c8d9b8c9a7f19467e27000000000000000000000000000000000000000000000000000000008c526004339c01615038565b03925af18015610c6957611d19575b5073ffffffffffffffffffffffffffffffffffffffff6008541691823b15610c5d576040517f346dab9900000000000000000000000000000000000000000000000000000000815260048101929092526024820185905260448201529085908290606490829084905af1908115610b13578591611d05575b505060055460409182015191517f912d228f00000000000000000000000000000000000000000000000000000000815273ffffffffffffffffffffffffffffffffffffffff92831660048201526024810193909352602091839160449183918891165af19081156102e0578391611cd0575b5073ffffffffffffffffffffffffffffffffffffffff806004541692511690823b15610b0e576040517f519badd600000000000000000000000000000000000000000000000000000000815233600482015273ffffffffffffffffffffffffffffffffffffffff90921660248301526044820152908290829081838160648101610a6b565b9250506020823d602011611cfd575b81611cec602093836148da565b81010312610ae3578291515f611c4b565b3d9150611cdf565b611d0e90614899565b610b0e57835f611bd9565b6020809297503d8311611d41575b611d3181836148da565b81010312610ae35785945f611b61565b503d611d27565b9650506020863d602011611d78575b81611d64602093836148da565b81010312610ae35794518695906020611a81565b3d9150611d57565b611d8d9130903390614a1f565b6119a5565b611da691503d8086833e610d5781836148da565b5f61193e565b503461034157606060031936011261034157611dc66147fd565b60243573ffffffffffffffffffffffffffffffffffffffff908181168091036116f75760443591611df5614933565b611dfd615497565b8215611edb5784938160095416803b15611ed7576040517f636be27a00000000000000000000000000000000000000000000000000000000815273ffffffffffffffffffffffffffffffffffffffff83166004820152602481018690529086908290604490829084905af1908115610b86578691611ec3575b50501673eeeeeeeeeeeeeeeeeeeeeeeeeeeeeeeeeeeeeeee8103611eb45750828092819282f115611ea8576001805580f35b604051903d90823e3d90fd5b611ebe9350615138565b6102d9565b611ecc90614899565b610ab257845f611e76565b8580fd5b60646040517f08c379a000000000000000000000000000000000000000000000000000000000815260206004820152600f60248201527f4552525f5a45524f5f414d4f554e5400000000000000000000000000000000006044820152fd5b5034610341578060031936011261034157602073ffffffffffffffffffffffffffffffffffffffff60025416604051908152f35b5060a060031936011261034157600435611f85614866565b9060443561ffff808216809203610ae357611f9e614877565b93611fa76149b2565b611fb081615770565b8573ffffffffffffffffffffffffffffffffffffffff926024828560085416604051928380927f4579268a0000000000000000000000000000000000000000000000000000000082528b60048301525afa9081156102e05783916120fa575b508460406120258460808501519716809761573f565b9201511673eeeeeeeeeeeeeeeeeeeeeeeeeeeeeeeeeeeeeeee81036120e1575034106120dd5760209560c4945b600854169160405198899788967fb438b89000000000000000000000000000000000000000000000000000000000885260048801526064356024880152604487015216606485015233608485015260a48401525af18015610a8c576120b5575080f35b602090813d81116120d6575b6120cb81836148da565b81010312610ae35780f35b503d6120c1565b5080fd5b946120f56020989260c49730903390614a1f565b612052565b61210e91503d8085833e610d5781836148da565b5f61200f565b50346103415760206003193601126103415760043561ffff81168103610ae35761162d90615770565b503461034157806003193601126103415760035473ffffffffffffffffffffffffffffffffffffffff33818316036121cc577fffffffffffffffffffffffff00000000000000000000000000000000000000008092166003556002549133908316176002553391167f8be0079c531659141344cd1fd0a4f28419497f9722a3daafe3b4186f6b6457e05f80a380f35b60846040517f08c379a000000000000000000000000000000000000000000000000000000000815260206004820152602960248201527f4f776e61626c6532537465703a2063616c6c6572206973206e6f74207468652060448201527f6e6577206f776e657200000000000000000000000000000000000000000000006064820152fd5b5034610341578060031936011261034157612269614933565b5f73ffffffffffffffffffffffffffffffffffffffff7fffffffffffffffffffffffff00000000000000000000000000000000000000008060035416600355600254908116600255167f8be0079c531659141344cd1fd0a4f28419497f9722a3daafe3b4186f6b6457e08280a380f35b5034610341576040600319360112610341578060246004356122f9614866565b6123016149b2565b61230a81615770565b73ffffffffffffffffffffffffffffffffffffffff90848260085416604051958680927f4579268a0000000000000000000000000000000000000000000000000000000082528760048301525afa938415610b13578594612442575b5061237d60409161ffff608087015191169061573f565b930181848183511673eeeeeeeeeeeeeeeeeeeeeeeeeeeeeeeeeeeeeeee81145f1461242d575050508480858015612423575b8280929181923390f115610aef57816123cd915b5116843385615565565b6008541691823b15610b0e576040517f7f4a10b600000000000000000000000000000000000000000000000000000000815260048101929092523360248301526044820152908290829081838160648101610a6b565b6108fc91506123af565b6123cd939161243d913390615138565b6123c3565b604091945061245d61237d913d8089833e610d5781836148da565b949150612366565b50346103415760a06003193601126103415761247f614820565b6064359073ffffffffffffffffffffffffffffffffffffffff90818316809303610ae3576084356004811015610ab2577f1b89f92faead76d76eeb15b01f4ca1cff0fcbad53196805a290812426389ea7e9360e09360015f540193845f5560405194855260043560208601521660408401526044356060840152608083015260a08201524260c0820152a180f35b50604060031936011261034157600435612525614866565b61252d6149b2565b61253681615770565b8273ffffffffffffffffffffffffffffffffffffffff928360075416604051907f504006ca000000000000000000000000000000000000000000000000000000008252826004830152816024816102c09687945af1928315610b86578693612a10575b5050836102808301511633036129b2578493846125bb6101408501514261542e565b946126076064670de0b6b3a76400006125ff6125ef6125e461ffff60808c01519716809761573f565b9560c08b015161573f565b99610ded6101208b01518761572c565b040482615468565b612611828261542e565b8460095416604051907fa001ecdd0000000000000000000000000000000000000000000000000000000082528160048160209889945af1908115611342578a91612976575b5061266461266b918361573f565b809261542e565b95856009541660408901928784511690823b15612972576040517fef6506db00000000000000000000000000000000000000000000000000000000815273ffffffffffffffffffffffffffffffffffffffff9290921660048301526024820152908b908290604490829084905af1918215612967578b8692889461294b575b5089908960075416926127436040519e8f96879586947f129773e2000000000000000000000000000000000000000000000000000000008652600486019094939260609260808301968352602083015260408201520152565b03925af197881561137f57899861292c575b508051851673eeeeeeeeeeeeeeeeeeeeeeeeeeeeeeeeeeeeeeee810361290d5750813410612909576127b184936127a261280b985b6127968b519184615468565b898651169133906156bb565b8680600554169351169361542e565b91896040518098819582947f912d228f000000000000000000000000000000000000000000000000000000008452600484016020909392919373ffffffffffffffffffffffffffffffffffffffff60408201951681520152565b03925af1928315610b865786936128d4575b5060a07f8a8cb0fe37d0c19cc9895f868058c082887e682f711d8492ab309eb12e9f29df916102a0860195848751169051906040519260678452429084015233604084015260608301526080820152a1806004541692511691803b15610ab25784928360849260405196879586947f875bc3d100000000000000000000000000000000000000000000000000000000865260048601523360248601526044850152151560648401525af18015610a8c57610a7c5750f35b809650818094503d8311612902575b6128ed81836148da565b81010312610ae35793518594909160a061281d565b503d6128e3565b8880fd5b84936127a261280b98612927866127b19530903390614a1f565b61278a565b612944919850843d8611610d3b57610d2d81836148da565b965f612755565b909250612959919350614899565b611337578385918b5f6126ea565b6040513d8d823e3d90fd5b8c80fd5b90508481813d83116129ab575b61298d81836148da565b81010312611337576126646129a461266b92614d9b565b9150612656565b503d612983565b60646040517f08c379a000000000000000000000000000000000000000000000000000000000815260206004820152601060248201527f4552525f4e4f545f424f52524f574552000000000000000000000000000000006044820152fd5b612a27929350803d106113e2576113d381836148da565b905f80612599565b5060206003193601126103415761162d6149b2565b503461034157606060031936011261034157612a5e6147fd565b612a66614820565b612a6e614843565b612a76614933565b612a7e615497565b73ffffffffffffffffffffffffffffffffffffffff8092817fffffffffffffffffffffffff0000000000000000000000000000000000000000951685600754161760075516836008541617600855169060095416176009556001805580f35b5034610341578060031936011261034157602060ff60035460a01c166040519015158152f35b50602060031936011261034157612b186149b2565b8073ffffffffffffffffffffffffffffffffffffffff60085416604051907fc58343ef00000000000000000000000000000000000000000000000000000000825260043560048301526101c082602481845afa9182156102e0578392613121575b506101a0612b9c81840151612b8d81615001565b612b9681615001565b15615285565b836101008401516024604051809581937f4579268a00000000000000000000000000000000000000000000000000000000835260048301525afa918215610aef578492613105575b5081015190612c12612c00604085019361ffff8551169061573f565b9261ffff60808401519151169061573f565b91612c416101008501518273ffffffffffffffffffffffffffffffffffffffff61016086015116913390615649565b604082015173ffffffffffffffffffffffffffffffffffffffff168373eeeeeeeeeeeeeeeeeeeeeeeeeeeeeeeeeeeeeeee82036130f557505084808480156130eb575b8280929181923390f115610aef575b612cc06101008501518473ffffffffffffffffffffffffffffffffffffffff6040860151169133906155d7565b612ceb73ffffffffffffffffffffffffffffffffffffffff60e0860151166101008601519033615506565b6005546101608301516040517f912d228f00000000000000000000000000000000000000000000000000000000815273ffffffffffffffffffffffffffffffffffffffff91821660048201526024810184905291602091839160449183918b91165af1908115610b865786916130b3575b506020849173ffffffffffffffffffffffffffffffffffffffff6007541661010088015191896101c0880151612d9181615001565b612e3173ffffffffffffffffffffffffffffffffffffffff60408b0151169373ffffffffffffffffffffffffffffffffffffffff6101608c015116968d608081015173ffffffffffffffffffffffffffffffffffffffff60e061ffff60608501511693015116938d6040519d8e9c8d9b8c9a7f19467e27000000000000000000000000000000000000000000000000000000008c52339860048d016150b8565b03925af18015610b8657613084575b5073ffffffffffffffffffffffffffffffffffffffff6008541690825190823b15610c5d576040517f346dab9900000000000000000000000000000000000000000000000000000000815260048101929092526024820185905260448201529085908290606490829084905af1908115610b13578591613070575b505073ffffffffffffffffffffffffffffffffffffffff60085416803b15610ab2576040517fdaba858a00000000000000000000000000000000000000000000000000000000815260048035908201523360248201529085908290604490829084905af1908115610b1357859161305c575b505060055460409182015191517f912d228f00000000000000000000000000000000000000000000000000000000815273ffffffffffffffffffffffffffffffffffffffff92831660048201526024810193909352602091839160449183918891165af19081156102e0578391613027575b5073ffffffffffffffffffffffffffffffffffffffff60e081600454169301511690823b15610b0e576040517f519badd600000000000000000000000000000000000000000000000000000000815273ffffffffffffffffffffffffffffffffffffffff90921660048301523360248301526044820152908290829081838160648101610a6b565b9250506020823d602011613054575b81613043602093836148da565b81010312610ae3578291515f612f9f565b3d9150613036565b61306590614899565b610b0e57835f612f2d565b61307990614899565b610b0e57835f612ebb565b6020809296503d83116130ac575b61309c81836148da565b81010312610ae35784935f612e40565b503d613092565b9550506020853d6020116130e3575b816130cf602093836148da565b81010312610ae35793518594906020612d5c565b3d91506130c2565b6108fc9150612c84565b613100913390615138565b612c93565b61311a9192503d8086833e610d5781836148da565b905f612be4565b6131469192506101c03d6101c01161314d575b61313e81836148da565b810190615197565b905f612b79565b503d613134565b5060c0600319360112610341576131696147fd565b81613172614843565b9161317b614877565b613183614888565b61318b6149b2565b6005546040517f912d228f00000000000000000000000000000000000000000000000000000000815273ffffffffffffffffffffffffffffffffffffffff858116600483015260248035908301529491602090829060449082908a908a165af1908115610b865786916135c7575b506006546040517f8a83f8cc00000000000000000000000000000000000000000000000000000000815233600482015260248101929092526020908290604490829089165afa908115610b8657869161358d575b506005546040517f701f660400000000000000000000000000000000000000000000000000000000815273ffffffffffffffffffffffffffffffffffffffff8481166004830152891660248083019190915235604482015290602090829060649082908b908b165af1908115610c69578791613558575b50600460208760065416604051928380927fd104a1360000000000000000000000000000000000000000000000000000000082525afa90811561354d578891613507575b5061331a9260ff6106a4921690614dca565b9286851692858773eeeeeeeeeeeeeeeeeeeeeeeeeeeeeeeeeeeeeeee86036134ed575050843410610c5d57602092876101049288945b85600854169160405198899788967f90d870d200000000000000000000000000000000000000000000000000000000885216600487015260248601528960448601526024356064860152606435608486015261ffff80921660a48601521660c48401523360e48401525af18015610aef576134be575b506005546040517f912d228f00000000000000000000000000000000000000000000000000000000815273ffffffffffffffffffffffffffffffffffffffff959095166004860152602485019190915291929160209083906044908290879086165af19182156102e0578392613487575b5060045416803b15610a97576040517f63a6c98100000000000000000000000000000000000000000000000000000000815233600482015260248101929092528290829081838160448101610a6b565b925090506020823d6020116134b6575b816134a4602093836148da565b81010312610ae357829151905f613437565b3d9150613497565b6020809294503d83116134e6575b6134d681836148da565b81010312610ae35783915f6133c6565b503d6134cc565b6101049260209592946135028930338b614a1f565b613350565b90506020813d602011613545575b81613522602093836148da565b810103126116f35761331a9260ff61353c6106a493614dbc565b92505092613308565b3d9150613515565b6040513d8a823e3d90fd5b9650506020863d602011613585575b81613574602093836148da565b81010312610ae3578795515f6132c4565b3d9150613567565b90506020813d6020116135bf575b816135a8602093836148da565b81010312611ed7576135b990614d9b565b5f61324d565b3d915061359b565b9550506020853d6020116135f7575b816135e3602093836148da565b81010312610ae357935186949060206131f9565b3d91506135d6565b5034610341578060031936011261034157602060405160688152f35b5034610341578060031936011261034157602060405160028152f35b5034610341576020600319360112610341576136516149b2565b8073ffffffffffffffffffffffffffffffffffffffff60085416604051907fc58343ef00000000000000000000000000000000000000000000000000000000825260043560048301526101c082602481845afa9182156102e0578392613b24575b506136d660016101a08401516136c781615001565b6136d081615001565b14615285565b826101008301516024604051809481937f4579268a00000000000000000000000000000000000000000000000000000000835260048301525afa9081156102e0578391613b0a575b50613736608082015161ffff6040850151169061573f565b9061378461010084015173ffffffffffffffffffffffffffffffffffffffff60e0860151166101408601519073ffffffffffffffffffffffffffffffffffffffff6101208801511692615649565b81602073ffffffffffffffffffffffffffffffffffffffff60075416610100860151906101c08501516137b681615001565b8873ffffffffffffffffffffffffffffffffffffffff6040880151169161386573ffffffffffffffffffffffffffffffffffffffff6101208c015116956101408c0151898d61016081015160808201519073ffffffffffffffffffffffffffffffffffffffff60e061ffff60608601511694015116946040519e8f9d8e9c8d9b8c9a7f19467e27000000000000000000000000000000000000000000000000000000008c526004339c01615038565b03925af18015610b1357613adb575b506138a073ffffffffffffffffffffffffffffffffffffffff60e0850151166101008501519033615506565b73ffffffffffffffffffffffffffffffffffffffff60085416610100840151813b15611ed75785916044839260405194859384927fa5ff109000000000000000000000000000000000000000000000000000000000845260048401528860248401525af1908115610b13578591613ac7575b505073ffffffffffffffffffffffffffffffffffffffff60085416803b15610ab2576040517fdaba858a00000000000000000000000000000000000000000000000000000000815260048035908201523360248201529085908290604490829084905af1908115610b13578591613ab3575b505060055460409182015191517f912d228f00000000000000000000000000000000000000000000000000000000815273ffffffffffffffffffffffffffffffffffffffff92831660048201526024810193909352602091839160449183918891165af19081156102e0578391613a7e575b5073ffffffffffffffffffffffffffffffffffffffff60e081600454169301511690823b15610b0e576040517f519badd600000000000000000000000000000000000000000000000000000000815233600482015273ffffffffffffffffffffffffffffffffffffffff90921660248301526044820152908290829081838160648101610a6b565b9250506020823d602011613aab575b81613a9a602093836148da565b81010312610ae3578291515f6139f6565b3d9150613a8d565b613abc90614899565b610b0e57835f613984565b613ad090614899565b610b0e57835f613912565b6020809295503d8311613b03575b613af381836148da565b81010312610ae35783925f613874565b503d613ae9565b613b1e91503d8085833e610d5781836148da565b5f61371e565b613b409192506101c03d6101c01161314d5761313e81836148da565b905f6136b2565b5034610341578060031936011261034157602060405160678152f35b50346103415760206003193601126103415780600435613b816149b2565b73ffffffffffffffffffffffffffffffffffffffff8060085416604051907fc58343ef0000000000000000000000000000000000000000000000000000000082528360048301526101c0918281602481855afa928315610b86578693613d87575b5050846101008301516024604051809481937f4579268a00000000000000000000000000000000000000000000000000000000835260048301525afa908115610b1357859284918493613d6b575b506101a0810151613c4081615001565b613c4981615001565b613d0457613c6660409161ffff836080870151920151169061573f565b9201511673eeeeeeeeeeeeeeeeeeeeeeeeeeeeeeeeeeeeeeee8103613cf3575081808092818115613cea575b3390f115610a8c575b60085416803b15610a97576040517f9498506500000000000000000000000000000000000000000000000000000000815260048101929092523360248301528290829081838160448101610a6b565b506108fc613c92565b613cff92503390615138565b613c9b565b9291506101208301511673eeeeeeeeeeeeeeeeeeeeeeeeeeeeeeeeeeeeeeee81145f14613d585750808061014081940151818115613d4f575b3390f1613c9b576040513d84823e3d90fd5b506108fc613d3d565b9050610140613cff920151903390615138565b613d809193503d8086833e610d5781836148da565b915f613c30565b613d9e929350803d1061314d5761313e81836148da565b905f80613be2565b5034610341578060031936011261034157602060405173eeeeeeeeeeeeeeeeeeeeeeeeeeeeeeeeeeeeeeee8152f35b503461034157602060031936011261034157600435613df26149b2565b73ffffffffffffffffffffffffffffffffffffffff90828260085416803b156120dd576040517f774d3df5000000000000000000000000000000000000000000000000000000008152600481018490523360248201529082908290604490829084905af18015610a8c57613f2b575b50508160085416916040519283927fc58343ef00000000000000000000000000000000000000000000000000000000845260048401528260246101c09485935afa908115610aef577f8a8cb0fe37d0c19cc9895f868058c082887e682f711d8492ab309eb12e9f29df9360a0938693613f06575b50506101009060e083015116910151604051916065835242602084015233604084015260608301526080820152a180f35b6101009293509081613f2392903d1061314d5761313e81836148da565b91905f613ed5565b613f3490614899565b613f3f57825f613e61565b8280fd5b5060c06003193601126103415780600435613f5c614866565b90613f65614843565b91613f6e614877565b91613f77614888565b91613f806149b2565b613f8981615770565b73ffffffffffffffffffffffffffffffffffffffff93846008541692604051947f4579268a0000000000000000000000000000000000000000000000000000000086528160048701528886602481885afa94851561137f5761404b968a96614508575b508860405180927f39700629000000000000000000000000000000000000000000000000000000008252818d8160209c8d968a6004840190929173ffffffffffffffffffffffffffffffffffffffff6020916040840195845216910152565b03925af1801561134257614065918b916144f15750614f9c565b608085015161ffff85166140789161573f565b6005546040968701805197517f912d228f00000000000000000000000000000000000000000000000000000000808252988b1673ffffffffffffffffffffffffffffffffffffffff1660048201526024810184905290959291899082908c16818f816044810103925af190811561443b578c916144be575b506006546040517f8a83f8cc00000000000000000000000000000000000000000000000000000000815233600482015260248101929092529091908990839060449082908e165afa95861561443b578b8d8b948199614479575b5060055492516040517f701f660400000000000000000000000000000000000000000000000000000000815273ffffffffffffffffffffffffffffffffffffffff918f1682166004820152921660248301526044820193909352929183918c1690829081606481015b03925af1908115612967578b91614446575b50600490888a60065416604051938480927fd104a1360000000000000000000000000000000000000000000000000000000082525afa91821561443b578c926143fc575b506106a460ff61421a931687614dca565b93888a16968b73eeeeeeeeeeeeeeeeeeeeeeeeeeeeeeeeeeeeeeee89145f146143e857503486106143e4578b9a89915b60055460405191825273ffffffffffffffffffffffffffffffffffffffff929092166004820152602481018890529b8c9160449183918e165af1998a15612967578b9a6143a4575b509088889695949392816008541695604051998a987f3bb1374b000000000000000000000000000000000000000000000000000000008a5261ffff1660048a0152602489015260448801528b606488015216608486015260643560a486015261ffff1660c485015261ffff1660e48401523361010484015261012483015281885a9261014493f18015610b1357614375575b505060045416803b15610a97576040517f63a6c98100000000000000000000000000000000000000000000000000000000815233600482015260248101929092528290829081838160448101610a6b565b90809294503d831161439d575b61438c81836148da565b81010312610ae35782915f80614324565b503d614382565b919a509850939291908685813d81116143dd575b6143c281836148da565b81010312610ae3578a99888896519a91929394959650614292565b503d6143b8565b8b80fd5b9a89916143f78830338d614a1f565b61424a565b91508882813d8311614434575b61441381836148da565b810103126143e4576106a460ff61442c61421a94614dbc565b935050614209565b503d614409565b6040513d8e823e3d90fd5b809b50888092503d8311614472575b61445f81836148da565b81010312610ae35760048b9a51906141c5565b503d614455565b93985050509181813d83116144b7575b61449381836148da565b810103126143e4578b956141b3928c6144ac8c94614d9b565b98909192939461414a565b503d614489565b80929c50898092503d83116144ea575b6144d881836148da565b81010312610ae357518b9a90886140f0565b503d6144ce565b610d359150883d8a11610d3b57610d2d81836148da565b61451d9196503d808c833e610d5781836148da565b945f613fec565b50346103415760206003193601126103415761453e615497565b6145466149b2565b6007546040517f189a4b7600000000000000000000000000000000000000000000000000000000815260048035908201523360248201529073ffffffffffffffffffffffffffffffffffffffff906060908390831681868160448101610280565b5034610341576040600319360112610341576004358160246145c7614866565b6145cf6149b2565b6145d881615770565b73ffffffffffffffffffffffffffffffffffffffff90838260085416604051948580927f4579268a0000000000000000000000000000000000000000000000000000000082528960048301525afa928315610aef578493614725575b5061464d6101609161ffff6101a086015191169061573f565b920181838183511673eeeeeeeeeeeeeeeeeeeeeeeeeeeeeeeeeeeeeeee81145f14614710575050508380848015614706575b8280929181923390f1156102e0578161469d915b5116833387615565565b60085416803b15613f3f576040517f043ab622000000000000000000000000000000000000000000000000000000008152600481019490945233602485015260448401919091528290606490829084905af18015610a8c576146fd575080f35b61162d90614899565b6108fc915061467f565b61469d9391614720913390615138565b614693565b61016091935061474161464d913d8088833e610d5781836148da565b939150614634565b5034610341576060600319360112610341576147636147fd565b61476b614820565b614773614843565b61477b614933565b614783615497565b73ffffffffffffffffffffffffffffffffffffffff8092817fffffffffffffffffffffffff0000000000000000000000000000000000000000951685600654161760065516836004541617600455169060055416176005556001805580f35b9050346120dd57816003193601126120dd5780606560209252f35b6004359073ffffffffffffffffffffffffffffffffffffffff82168203610ae357565b6024359073ffffffffffffffffffffffffffffffffffffffff82168203610ae357565b6044359073ffffffffffffffffffffffffffffffffffffffff82168203610ae357565b6024359061ffff82168203610ae357565b6084359061ffff82168203610ae357565b60a4359061ffff82168203610ae357565b67ffffffffffffffff81116148ad57604052565b7f4e487b71000000000000000000000000000000000000000000000000000000005f52604160045260245ffd5b90601f7fffffffffffffffffffffffffffffffffffffffffffffffffffffffffffffffe0910116810190811067ffffffffffffffff8211176148ad57604052565b67ffffffffffffffff81116148ad5760051b60200190565b73ffffffffffffffffffffffffffffffffffffffff60025416330361495457565b60646040517f08c379a000000000000000000000000000000000000000000000000000000000815260206004820152602060248201527f4f776e61626c653a2063616c6c6572206973206e6f7420746865206f776e65726044820152fd5b60ff60035460a01c166149c157565b60646040517f08c379a000000000000000000000000000000000000000000000000000000000815260206004820152601060248201527f5061757361626c653a20706175736564000000000000000000000000000000006044820152fd5b6040517f23b872dd00000000000000000000000000000000000000000000000000000000602082015273ffffffffffffffffffffffffffffffffffffffff92831660248201529290911660448301526064820192909252614ab491614aaf82608481015b037fffffffffffffffffffffffffffffffffffffffffffffffffffffffffffffffe081018452836148da565b614ace565b565b90816020910312610ae357518015158103610ae35790565b73ffffffffffffffffffffffffffffffffffffffff9092919216604051604081019367ffffffffffffffff94828110868211176148ad576040526020928383527f5361666545524332303a206c6f772d6c6576656c2063616c6c206661696c6564848401525f808386829551910182855af1903d15614c6e573d968711614c4157614b9894959660405190614b8a887fffffffffffffffffffffffffffffffffffffffffffffffffffffffffffffffe0601f84011601836148da565b81528093873d92013e614c7b565b80519081614ba557505050565b8280614bb5938301019101614ab6565b15614bbd5750565b608490604051907f08c379a00000000000000000000000000000000000000000000000000000000082526004820152602a60248201527f5361666545524332303a204552433230206f7065726174696f6e20646964206e60448201527f6f742073756363656564000000000000000000000000000000000000000000006064820152fd5b6024837f4e487b710000000000000000000000000000000000000000000000000000000081526041600452fd5b9150614b98939495506060915b91929015614cf65750815115614c8f575090565b3b15614c985790565b60646040517f08c379a000000000000000000000000000000000000000000000000000000000815260206004820152601d60248201527f416464726573733a2063616c6c20746f206e6f6e2d636f6e74726163740000006044820152fd5b825190915015614d095750805190602001fd5b604051907f08c379a00000000000000000000000000000000000000000000000000000000082528160208060048301528251928360248401525f5b848110614d84575050507fffffffffffffffffffffffffffffffffffffffffffffffffffffffffffffffe0601f835f604480968601015201168101030190fd5b818101830151868201604401528593508201614d44565b519073ffffffffffffffffffffffffffffffffffffffff82168203610ae357565b519060ff82168203610ae357565b9073ffffffffffffffffffffffffffffffffffffffff809116918215614def57160490565b7f4e487b71000000000000000000000000000000000000000000000000000000005f52601260045260245ffd5b519061ffff82168203610ae357565b6020918282820312610ae357815167ffffffffffffffff92838211610ae35701916101e0938484840312610ae357604051948501858110838211176148ad5760405283518552808401516002811015610ae35781860152614e8e60408501614d9b565b6040860152606084015160608601526080840151608086015260a084015160a0860152614ebd60c08501614e1c565b60c086015260e084015160e08601526101008085015190860152610120614ee5818601614d9b565b908601526101409182850151908111610ae35784019280601f85011215610ae3578351614f118161491b565b94614f1f60405196876148da565b818652838087019260051b820101928311610ae3578301905b828210614f855750505050830152610160614f54818301614d9b565b9083015261018080820151908301526101a080820151908301526101c080910151906002821015610ae35782015290565b838091614f9184614d9b565b815201910190614f38565b15614fa357565b60646040517f08c379a000000000000000000000000000000000000000000000000000000000815260206004820152601c60248201527f4552525f434f4c4c41544552414c5f4e4f545f535550504f52544544000000006044820152fd5b6002111561500b57565b7f4e487b71000000000000000000000000000000000000000000000000000000005f52602160045260245ffd5b9a96928b98949a96929d9c9995919d6101808a019e8a5261505881615001565b60208a015273ffffffffffffffffffffffffffffffffffffffff9a8b998a80931690604001521660608c015260808b015260a08a015260c089015260e088015261ffff166101008701526101208601521661014084015216906101600152565b9995919b9a97939894909b9692966101808b019c8b526150d781615001565b60208b015273ffffffffffffffffffffffffffffffffffffffff80998180991660408d01521660608b015260808a015260a089015260c088015260e087015261ffff1661010086015261012085015f90521661014084015216906101600152565b6040517fa9059cbb00000000000000000000000000000000000000000000000000000000602082015273ffffffffffffffffffffffffffffffffffffffff90921660248301526044820192909252614ab491614aaf8260648101614a83565b80916101c09283910312610ae35760405191820182811067ffffffffffffffff8211176148ad576040528051825260208101516004811015610ae35760208301526151e460408201614e1c565b60408301526151f560608201614e1c565b60608301526080810151608083015260a081015160a083015260c081015160c083015261522460e08201614d9b565b60e08301526101008082015190830152610120615242818301614d9b565b908301526101408082015190830152610160808201519083015261018061526a818301614d9b565b908301526101a080910151906002821015610ae35782015290565b1561528c57565b60646040517f08c379a000000000000000000000000000000000000000000000000000000000815260206004820152601060248201527f4552525f524551554553545f54595045000000000000000000000000000000006044820152fd5b80916102c09283910312610ae35760405191820182811067ffffffffffffffff8211176148ad576040528051825260208101516004811015610ae357602083015261533760408201614d9b565b604083015261534860608201614d9b565b60608301526080810151608083015260a081015160a083015260c081015160c083015260e081015160e083015261010080820151908301526101208082015190830152610140808201519083015261016080820151908301526101806153af818301614e1c565b908301526101a06153c1818301614dbc565b908301526101c080820151908301526101e080820151908301526102008082015190830152610220808201519083015261024080820151908301526102608082015190830152610280615415818301614d9b565b908301526154276102a0809201614d9b565b9082015290565b9190820391821161543b57565b7f4e487b71000000000000000000000000000000000000000000000000000000005f52601160045260245ffd5b9190820180921161543b57565b90816060910312610ae357805191615494604060208401519301614d9b565b90565b6002600154146154a8576002600155565b60646040517f08c379a000000000000000000000000000000000000000000000000000000000815260206004820152601f60248201527f5265656e7472616e637947756172643a207265656e7472616e742063616c6c006044820152fd5b907f8a8cb0fe37d0c19cc9895f868058c082887e682f711d8492ab309eb12e9f29df9260a092604051926064845242602085015273ffffffffffffffffffffffffffffffffffffffff80921660408501521660608301526080820152a1565b907f1b89f92faead76d76eeb15b01f4ca1cff0fcbad53196805a290812426389ea7e9360e09360015f540193845f55604051948552602085015273ffffffffffffffffffffffffffffffffffffffff80931660408501526060840152166080820152600360a08201524260c0820152a1565b907f1b89f92faead76d76eeb15b01f4ca1cff0fcbad53196805a290812426389ea7e9360e09360015f540193845f55604051948552602085015273ffffffffffffffffffffffffffffffffffffffff80931660408501526060840152166080820152600160a08201524260c0820152a1565b907f1b89f92faead76d76eeb15b01f4ca1cff0fcbad53196805a290812426389ea7e9360e09360015f540193845f55604051948552602085015273ffffffffffffffffffffffffffffffffffffffff80931660408501526060840152166080820152600260a08201524260c0820152a1565b907f1b89f92faead76d76eeb15b01f4ca1cff0fcbad53196805a290812426389ea7e9360e09360015f540193845f55604051948552602085015273ffffffffffffffffffffffffffffffffffffffff809316604085015260608401521660808201525f60a08201524260c0820152a1565b8181029291811591840414171561543b57565b9073ffffffffffffffffffffffffffffffffffffffff16801561576c576157689060649261572c565b0490565b5090565b61ffff809116606481116157e757601990061661578957565b60646040517f08c379a000000000000000000000000000000000000000000000000000000000815260206004820152600e60248201527f4552525f50455243454e544147450000000000000000000000000000000000006044820152fd5b60646040517f08c379a000000000000000000000000000000000000000000000000000000000815260206004820152600f60248201527f4f5645525f50455243454e5441474500000000000000000000000000000000006044820152fdfea2646970667358221220c08231f9e80c87fa38127641f75ef6faa3d68ece0d1151a3444f5f67fa81f48f64736f6c63430008140033",
  "linkReferences": {},
  "deployedLinkReferences": {}
}